:100000000C9448000C9465000C9465000C946500F9
:100010000C9465000C9465000C9465000C946500CC
:100020000C9465000C9465000C9465000C946500BC
:100030000C9465000C94EB000C9465000C94650026
:100040000C9465000C9465000C9465000C9465009C
:100050000C9465000C9465000C94A6010C9465004A
:100060000C9465000C9412010C94DF010C94650053
:100070000C9465000C9465000C9465000C9465006C
:100080000C9465000C9465000C9465000C9465005C
:1000900011241FBECFEFCDBFDFE3DEBF18E2A0E02B
:1000A000B8E2E6E6F5E002C005900D92A430B10793
:1000B000D9F728E2A4E0B8E201C01D92AD38B2073A
:1000C000E1F70E9481020C94B1020C940000E0E27E
:1000D000F8E080E491E0808791878581806885835E
:1000E0008681806886838781886287830895CF931D
:1000F000DF9361E081E690E00E94AB02C0E0D4E0D3
:100100008FE0898382E080934204E0E9FAE0808115
:100110008160808380EA9FE0848795878581816004
:100120008583E0EAFAE08081836080838EEF9FEF31
:10013000848795878581816085830E946700E0E8D8
:10014000F1E082898064828B84A9836084AB80899A
:100150008364808B85A9816085AB80E28093A00059
:10016000E0E0F6E080818660808381818560818324
:10017000828182608283838180628383168282850A
:1001800081608287808181608083808581608087B3
:10019000E0E0FAE080818660808380E29EE486A3CE
:1001A00097A38181836781838CED95E084A795A7D0
:1001B00082A793A780A791A7808181608083E0E1D7
:1001C000F1E086E182838CE08383789481E08D8303
:1001D000DF91CF9108951F920F920FB60F921124C5
:1001E0008F939F93EF93FF93E3E8F8E282819381EB
:1001F000019682839383808191810196808391838C
:1002000086819781019686839783E0E9FAE086816B
:100210008683FF91EF919F918F910F900FBE0F906A
:100220001F9018951F920F920FB60F9211242F93C3
:100230003F934F935F938F939F93EF93FF9380919F
:10024000612890916228853B910538F080910928BA
:100250008F3018F48F5F80930928809161289091E6
:1002600062288C38910538F480910928882359F048
:10027000815080930928809109288B3010F01092CA
:100280000428853018F481E08093042880914B285D
:1002900090914C288838934178F481E0809303282A
:1002A0001092082810920728809302288093012832
:1002B000809300281092052880914B2890914C281B
:1002C0008436994120F580914B2890914C288D37A8
:1002D0009541E8F01092032881E08093082810925D
:1002E0000728809185289091862880930A289093EA
:1002F0000B2820910C2830910D28AC01421B530B88
:100300004A3F510520F080930C2890930D2880914E
:100310004B2890914C2889359B4138F01092032846
:100320001092082881E080930728E0EAFAE08681AD
:100330008683FF91EF919F918F915F914F913F91B4
:100340002F910F900FBE0F901F9018951F920F9234
:100350000FB60F9211242F933F938F93EF93FF9338
:1003600080912A28E82FF0E02091100630911106A4
:1003700036952795329522952F7023273F70232796
:10038000EE0FFF1FE95AF74D208331838F5F8830CE
:1003900018F480932A2805C010922A2881E08093BF
:1003A000062880912A2880930606FF91EF918F916D
:1003B0003F912F910F900FBE0F901F9018951F9295
:1003C0000F920FB60F9211242F933F934F935F9389
:1003D0008F939F93EF93FF938091200880930F2832
:1003E000809110288F5F8093102880910F288F3084
:1003F00031F480910E28811102C010921028E091F2
:100400001028F0E080910F28EF5EF74D80838091F7
:100410001028823071F4E1E1F8E241818281877035
:1004200090E0982F8827840F911D80934328909304
:10043000442880911028833091F4E1E1F8E243816F
:1004400082814F7386958695869590E050E2459F10
:10045000800D911D1124809345289093462880910A
:1004600010288430B9F4E1E1F8E2838154814581B8
:10047000837090E024E0529F800D911D1124417003
:10048000342F330F330F20E0820F931F80934928BE
:1004900090934A2880911028853079F4E1E1F8E2C0
:1004A000258186812E7F30E8839FC0011124820F31
:1004B000911D80934B2890934C2880911028853073
:1004C00079F4E1E1F8E2268187812E7F50E1859F72
:1004D000C0011124820F911D80934D2890934E28C6
:1004E00080910F2880930E28FF91EF919F918F911B
:1004F0005F914F913F912F910F900FBE0F901F90E2
:1005000018950E947700E3E4F8E2C0E0D4E028E028
:10051000A0E0BAE086819781883E934010F02D8359
:1005200001C02E83808191818C509E4F9A968D932D
:100530009C939B97828193818C509E4F9C968D9328
:100540009C939D97808591858C509E4F98968D9316
:100550009C939997DFCFDC0128ED209334006C93B6
:060560000895F894FFCF9E
:04056600010101018D
:00000001FF
